:1000000013C022C022C020C01FC01EC01DC01CC003
:100010001BC01AC019C018C017C016C015C014C024
:1000200013C012C011C010C011241FBECFEFD2E008
:10003000DEBFCDBF21E0A0E0B1E001C01D92A33042
:10004000B207E1F766D07AC0DBCF1F920F920FB6EE
:100050000F9211248F939F9380910201811109C007
:1000600089B182958F708093010181E080930201B4
:100070000CC089B190910101807F892B809301018F
:100080001092020181E0809300019F918F910F9067
:100090000FBE0F901F901895E9E6F0E08081886010
:1000A00080838081846080838DB382608DBB08955E
:1000B0008AB1877F8AB98AB18F7E8AB98AB18F7DEA
:1000C0008AB98AB18F7B8AB98AB18F778AB98BB1A5
:1000D000886F8BB9089584B18C6284B984B18F7EA6
:1000E00084B985B18C6385B98CB583658CBD8CB5BD
:1000F0008CBD8DB58E7F8DBD089595B19B7F95B9D3
:100100008EBD0DB407FEFDCF85B1846085B98EB577
:100110000895CEDFC1DFDFDF8FEF87B9789480915C
:1001200000018823E1F380910101E7DF8091010163
:1001300088B91092000110920101F1CFF894FFCF1D
:00000001FF
