S0130000506172616C6C656C4275732E73726563BA
S113000013C022C021C020C01FC01EC01DC01CC000
S11300101BC01AC019C018C017C016C015C014C020
S113002013C012C011C010C011241FBECFEFD2E004
S1130030DEBFCDBF21E0A0E0B1E001C01D92A13040
S1130040B207E1F731D04DC0DBCF8AB188608AB9FD
S11300508AB180618AB98AB180628AB98AB18064BE
S11300608AB98AB180688AB98BB18BB908958BB18A
S113007088608BB98BE291E00197F1F700C0000032
S11300808BB1877F8BB90895CF93C82F90E0829569
S11300909295907F9827807F98278BB9E8DFC07F5F
S11300A0CBB9E5DFCF910895D0DF2FEF81EE94E057
S11300B0215080409040E1F700C000009091000181
S11300C081E0890F8093000181E001C0880F9A9537
S11300D0EAF7DADF80910001883081F7109200019D
S10900E0EDCFF894FFCF00
S9030000FC
